{
  "contractName": "TwoFactorAuth",
  "abi": [
    {
      "inputs": [],
      "stateMutability": "nonpayable",
      "type": "constructor"
    },
    {
      "anonymous": false,
      "inputs": [
        {
          "indexed": false,
          "internalType": "address",
          "name": "admin",
          "type": "address"
        }
      ],
      "name": "AdminAdded",
      "type": "event"
    },
    {
      "anonymous": false,
      "inputs": [
        {
          "indexed": false,
          "internalType": "address",
          "name": "admin",
          "type": "address"
        }
      ],
      "name": "AdminRemoved",
      "type": "event"
    },
    {
      "anonymous": false,
      "inputs": [
        {
          "indexed": false,
          "internalType": "string",
          "name": "username",
          "type": "string"
        }
      ],
      "name": "AuthenticationFailed",
      "type": "event"
    },
    {
      "anonymous": false,
      "inputs": [
        {
          "indexed": false,
          "internalType": "string",
          "name": "username",
          "type": "string"
        },
        {
          "indexed": false,
          "internalType": "uint256",
          "name": "otp",
          "type": "uint256"
        }
      ],
      "name": "OTPGenerated",
      "type": "event"
    },
    {
      "anonymous": false,
      "inputs": [
        {
          "indexed": false,
          "internalType": "string",
          "name": "username",
          "type": "string"
        },
        {
          "indexed": false,
          "internalType": "bytes32",
          "name": "recoveryCode",
          "type": "bytes32"
        }
      ],
      "name": "RecoveryCodeGenerated",
      "type": "event"
    },
    {
      "anonymous": false,
      "inputs": [
        {
          "indexed": false,
          "internalType": "string",
          "name": "username",
          "type": "string"
        },
        {
          "indexed": false,
          "internalType": "bytes32",
          "name": "sessionToken",
          "type": "bytes32"
        }
      ],
      "name": "SessionTokenExpired",
      "type": "event"
    },
    {
      "anonymous": false,
      "inputs": [
        {
          "indexed": false,
          "internalType": "string",
          "name": "username",
          "type": "string"
        },
        {
          "indexed": false,
          "internalType": "bytes32",
          "name": "sessionToken",
          "type": "bytes32"
        }
      ],
      "name": "SessionTokenGenerated",
      "type": "event"
    },
    {
      "anonymous": false,
      "inputs": [
        {
          "indexed": false,
          "internalType": "string",
          "name": "username",
          "type": "string"
        }
      ],
      "name": "UserAuthenticated",
      "type": "event"
    },
    {
      "anonymous": false,
      "inputs": [
        {
          "indexed": false,
          "internalType": "string",
          "name": "username",
          "type": "string"
        },
        {
          "indexed": false,
          "internalType": "address",
          "name": "publicKey",
          "type": "address"
        }
      ],
      "name": "UserRegistered",
      "type": "event"
    },
    {
      "anonymous": false,
      "inputs": [
        {
          "indexed": false,
          "internalType": "string",
          "name": "username",
          "type": "string"
        }
      ],
      "name": "UserRemoved",
      "type": "event"
    },
    {
      "inputs": [
        {
          "internalType": "address",
          "name": "",
          "type": "address"
        }
      ],
      "name": "admins",
      "outputs": [
        {
          "internalType": "bool",
          "name": "",
          "type": "bool"
        }
      ],
      "stateMutability": "view",
      "type": "function",
      "constant": true
    },
    {
      "inputs": [
        {
          "internalType": "string",
          "name": "",
          "type": "string"
        },
        {
          "internalType": "address",
          "name": "",
          "type": "address"
        }
      ],
      "name": "failedAuthAttempts",
      "outputs": [
        {
          "internalType": "uint256",
          "name": "",
          "type": "uint256"
        }
      ],
      "stateMutability": "view",
      "type": "function",
      "constant": true
    },
    {
      "inputs": [
        {
          "internalType": "string",
          "name": "",
          "type": "string"
        }
      ],
      "name": "otpExpiry",
      "outputs": [
        {
          "internalType": "uint256",
          "name": "",
          "type": "uint256"
        }
      ],
      "stateMutability": "view",
      "type": "function",
      "constant": true
    },
    {
      "inputs": [
        {
          "internalType": "string",
          "name": "",
          "type": "string"
        }
      ],
      "name": "users",
      "outputs": [
        {
          "internalType": "address",
          "name": "publicKey",
          "type": "address"
        },
        {
          "internalType": "bytes32",
          "name": "seed",
          "type": "bytes32"
        },
        {
          "internalType": "uint64",
          "name": "lastGeneratedAt",
          "type": "uint64"
        },
        {
          "internalType": "uint256",
          "name": "otpLength",
          "type": "uint256"
        },
        {
          "internalType": "uint256",
          "name": "otp",
          "type": "uint256"
        }
      ],
      "stateMutability": "view",
      "type": "function",
      "constant": true
    },
    {
      "inputs": [
        {
          "internalType": "string",
          "name": "username",
          "type": "string"
        },
        {
          "internalType": "address",
          "name": "_publicKey",
          "type": "address"
        },
        {
          "internalType": "bytes32",
          "name": "_seed",
          "type": "bytes32"
        },
        {
          "internalType": "uint256",
          "name": "_otpLength",
          "type": "uint256"
        },
        {
          "internalType": "uint256",
          "name": "_otpExpiry",
          "type": "uint256"
        }
      ],
      "name": "registerUser",
      "outputs": [],
      "stateMutability": "nonpayable",
      "type": "function"
    },
    {
      "inputs": [
        {
          "internalType": "string",
          "name": "username",
          "type": "string"
        }
      ],
      "name": "generateOTP",
      "outputs": [
        {
          "internalType": "uint256",
          "name": "",
          "type": "uint256"
        }
      ],
      "stateMutability": "nonpayable",
      "type": "function"
    },
    {
      "inputs": [
        {
          "internalType": "string",
          "name": "username",
          "type": "string"
        },
        {
          "internalType": "uint256",
          "name": "_otp",
          "type": "uint256"
        }
      ],
      "name": "authenticate",
      "outputs": [],
      "stateMutability": "nonpayable",
      "type": "function"
    },
    {
      "inputs": [
        {
          "internalType": "string",
          "name": "username",
          "type": "string"
        }
      ],
      "name": "unregisterUser",
      "outputs": [],
      "stateMutability": "nonpayable",
      "type": "function"
    },
    {
      "inputs": [
        {
          "internalType": "string",
          "name": "username",
          "type": "string"
        },
        {
          "internalType": "bytes32",
          "name": "_recoveryCode",
          "type": "bytes32"
        }
      ],
      "name": "generateRecoveryCode",
      "outputs": [],
      "stateMutability": "nonpayable",
      "type": "function"
    },
    {
      "inputs": [
        {
          "internalType": "string",
          "name": "username",
          "type": "string"
        },
        {
          "internalType": "bytes32",
          "name": "_recoveryCode",
          "type": "bytes32"
        }
      ],
      "name": "useRecoveryCode",
      "outputs": [],
      "stateMutability": "nonpayable",
      "type": "function"
    },
    {
      "inputs": [
        {
          "internalType": "address",
          "name": "_admin",
          "type": "address"
        }
      ],
      "name": "addAdmin",
      "outputs": [],
      "stateMutability": "nonpayable",
      "type": "function"
    },
    {
      "inputs": [
        {
          "internalType": "address",
          "name": "_admin",
          "type": "address"
        }
      ],
      "name": "removeAdmin",
      "outputs": [],
      "stateMutability": "nonpayable",
      "type": "function"
    },
    {
      "inputs": [
        {
          "internalType": "string",
          "name": "username",
          "type": "string"
        },
        {
          "internalType": "address",
          "name": "_user",
          "type": "address"
        }
      ],
      "name": "generateSessionToken",
      "outputs": [],
      "stateMutability": "nonpayable",
      "type": "function"
    },
    {
      "inputs": [
        {
          "internalType": "string",
          "name": "username",
          "type": "string"
        },
        {
          "internalType": "bytes32",
          "name": "sessionToken",
          "type": "bytes32"
        }
      ],
      "name": "invalidateSessionToken",
      "outputs": [],
      "stateMutability": "nonpayable",
      "type": "function"
    },
    {
      "inputs": [
        {
          "internalType": "string",
          "name": "username",
          "type": "string"
        },
        {
          "internalType": "address",
          "name": "_ip",
          "type": "address"
        }
      ],
      "name": "whitelistIP",
      "outputs": [],
      "stateMutability": "nonpayable",
      "type": "function"
    },
    {
      "inputs": [
        {
          "internalType": "string",
          "name": "username",
          "type": "string"
        },
        {
          "internalType": "address",
          "name": "_ip",
          "type": "address"
        }
      ],
      "name": "removeWhitelistedIP",
      "outputs": [],
      "stateMutability": "nonpayable",
      "type": "function"
    },
    {
      "inputs": [
        {
          "internalType": "string",
          "name": "username",
          "type": "string"
        },
        {
          "internalType": "address",
          "name": "_ip",
          "type": "address"
        }
      ],
      "name": "isIPWhitelisted",
      "outputs": [
        {
          "internalType": "bool",
          "name": "",
          "type": "bool"
        }
      ],
      "stateMutability": "view",
      "type": "function",
      "constant": true
    }
  ],
  "bytecode": "0x608060405234801561001057600080fd5b506001600360003373ffffffffffffffffffffffffffffffffffffffff1673ffffffffffffffffffffffffffffffffffffffff16815260200190815260200160002060006101000a81548160ff0219169083151502179055506122fb806100786000396000f3fe608060405234801561001057600080fd5b506004361061010b5760003560e01c806370480275116100a2578063b9a822b011610071578063b9a822b0146102b4578063bea6f76b146102d0578063cd50730414610300578063e9e8817b1461031c578063fface9961461034c5761010b565b8063704802751461023057806386f9f85f1461024c57806388ba1de11461027c5780639aa4e090146102985761010b565b8063429b62e5116100de578063429b62e514610180578063523ea2a1146101b057806355e5f41e146101cc578063689e1c03146101fc5761010b565b80631687e1ea146101105780631785f53c1461012c578063357b8fef146101485780633c2a2a9e14610164575b600080fd5b61012a6004803603810190610125919061175f565b610368565b005b61014660048036038101906101419190611612565b61044e565b005b610162600480360381019061015d919061163b565b61056c565b005b61017e6004803603810190610179919061167c565b6106f4565b005b61019a60048036038101906101959190611612565b610774565b6040516101a79190611c37565b60405180910390f35b6101ca60048036038101906101c5919061175f565b610794565b005b6101e660048036038101906101e1919061167c565b6108a7565b6040516101f39190611c37565b60405180910390f35b6102166004803603810190610211919061163b565b610922565b604051610227959493929190611be4565b60405180910390f35b61024a60048036038101906102459190611612565b6109a2565b005b6102666004803603810190610261919061163b565b610ac0565b6040516102739190611e04565b60405180910390f35b610296600480360381019061029191906117b3565b610aee565b005b6102b260048036038101906102ad919061167c565b610e33565b005b6102ce60048036038101906102c9919061167c565b610eb3565b005b6102ea60048036038101906102e5919061163b565b611032565b6040516102f79190611e04565b60405180910390f35b61031a6004803603810190610315919061175f565b61123e565b005b6103366004803603810190610331919061167c565b61137a565b6040516103439190611e04565b60405180910390f35b610366600480360381019061036191906116d0565b6113b5565b005b600080836040516103799190611b4d565b9081526020016040518091039020905080600601600083815260200190815260200160002060009054906101000a900460ff166103eb576040517f08c379a00000000000000000000000000000000000000000000000000000000081526004016103e290611da4565b60405180910390fd5b80600601600083815260200190815260200160002060006101000a81549060ff02191690557f8638fd8ec0cdf28d47a88549b94dc382370e810fc4dd048d3a7ef4be4b1b61778383604051610441929190611ca4565b60405180910390a1505050565b600360003373ffffffffffffffffffffffffffffffffffffffff1673ffffffffffffffffffffffffffffffffffffffff16815260200190815260200160002060009054906101000a900460ff166104da576040517f08c379a00000000000000000000000000000000000000000000000000000000081526004016104d190611dc4565b60405180910390fd5b6000600360008373ffffffffffffffffffffffffffffffffffffffff1673ffffffffffffffffffffffffffffffffffffffff16815260200190815260200160002060006101000a81548160ff0219169083151502179055507fa3b62bc36326052d97ea62d63c3d60308ed4c3ea8ac079dd8499f1e9c4f80c0f816040516105619190611bc9565b60405180910390a150565b600073ffffffffffffffffffffffffffffffffffffffff166000826040516105949190611b4d565b908152602001604051809103902060000160009054906101000a900473ffffffffffffffffffffffffffffffffffffffff1673ffffffffffffffffffffffffffffffffffffffff16141561061d576040517f08c379a000000000000000000000000000000000000000000000000000000000815260040161061490611d04565b60405180910390fd5b60008160405161062d9190611b4d565b9081526020016040518091039020600080820160006101000a81549073ffffffffffffffffffffffffffffffffffffffff021916905560018201600090556002820160006101000a81549067ffffffffffffffff02191690556003820160009055600482016000905550506001816040516106a89190611b4d565b9081526020016040518091039020600090557f5b8514bf599ab0e7b72a3b2d47ae13677daa88ebbf833cea7bad37b6df49ede3816040516106e99190611c52565b60405180910390a150565b600080836040516107059190611b4d565b9081526020016040518091039020905060008160070160008473ffffffffffffffffffffffffffffffffffffffff1673ffffffffffffffffffffffffffffffffffffffff16815260200190815260200160002060006101000a81548160ff021916908315150217905550505050565b60036020528060005260406000206000915054906101000a900460ff1681565b600360003373ffffffffffffffffffffffffffffffffffffffff1673ffffffffffffffffffffffffffffffffffffffff16815260200190815260200160002060009054906101000a900460ff16610820576040517f08c379a000000000000000000000000000000000000000000000000000000000815260040161081790611dc4565b60405180910390fd5b600080836040516108319190611b4d565b9081526020016040518091039020600501600083815260200190815260200160002060006101000a81548160ff0219169083151502179055507f88aea13d7527a9220b91ffab70249567af4a806840f51cb1a37d34137affb7ad828260405161089b929190611ca4565b60405180910390a15050565b6000806000846040516108ba9190611b4d565b908152602001604051809103902090508060070160008473ffffffffffffffffffffffffffffffffffffffff1673ffffffffffffffffffffffffffffffffffffffff16815260200190815260200160002060009054906101000a900460ff1691505092915050565b6000818051602081018201805184825260208301602085012081835280955050505050506000915090508060000160009054906101000a900473ffffffffffffffffffffffffffffffffffffffff16908060010154908060020160009054906101000a900467ffffffffffffffff16908060030154908060040154905085565b600360003373ffffffffffffffffffffffffffffffffffffffff1673ffffffffffffffffffffffffffffffffffffffff16815260200190815260200160002060009054906101000a900460ff16610a2e576040517f08c379a0000000000000000000000000000000000000000000000000000000008152600401610a2590611dc4565b60405180910390fd5b6001600360008373ffffffffffffffffffffffffffffffffffffffff1673ffffffffffffffffffffffffffffffffffffffff16815260200190815260200160002060006101000a81548160ff0219169083151502179055507f44d6d25963f097ad14f29f06854a01f575648a1ef82f30e562ccd3889717e33981604051610ab59190611bc9565b60405180910390a150565b6001818051602081018201805184825260208301602085012081835280955050505050506000915090505481565b60008083604051610aff9190611b4d565b90815260200160405180910390209050600073ffffffffffffffffffffffffffffffffffffffff168160000160009054906101000a900473ffffffffffffffffffffffffffffffffffffffff1673ffffffffffffffffffffffffffffffffffffffff161415610ba3576040517f08c379a0000000000000000000000000000000000000000000000000000000008152600401610b9a90611d04565b60405180910390fd5b6003600284604051610bb59190611b4d565b908152602001604051809103902060003373ffffffffffffffffffffffffffffffffffffffff1673ffffffffffffffffffffffffffffffffffffffff1681526020019081526020016000205410610c41576040517f08c379a0000000000000000000000000000000000000000000000000000000008152600401610c3890611d64565b60405180910390fd5b60008160040154905082811415610d8457600284604051610c629190611b4d565b908152602001604051809103902060003373ffffffffffffffffffffffffffffffffffffffff1673ffffffffffffffffffffffffffffffffffffffff168152602001908152602001600020600090556000843342604051602001610cc893929190611b64565b604051602081830303815290604052805190602001209050600183600601600083815260200190815260200160002060006101000a81548160ff0219169083151502179055507f38debb9feda5dc4ac4bc5345c1720812abc36df6b9df7b183d6c0411f8b9bcbb8582604051610d3f929190611ca4565b60405180910390a17fa82337e565c97588f77eeee8b8059684da7ca555338dd5c8368d82838527a09b85604051610d769190611c52565b60405180910390a150610e2d565b600284604051610d949190611b4d565b908152602001604051809103902060003373ffffffffffffffffffffffffffffffffffffffff1673ffffffffffffffffffffffffffffffffffffffff1681526020019081526020016000206000815480929190610df090612116565b91905055507f43d4e76cee91302510da1485b19c9e7477fcf4f97471b0f44a8831a2f4f5f4fe84604051610e249190611c52565b60405180910390a15b50505050565b60008083604051610e449190611b4d565b9081526020016040518091039020905060018160070160008473ffffffffffffffffffffffffffffffffffffffff1673ffffffffffffffffffffffffffffffffffffffff16815260200190815260200160002060006101000a81548160ff021916908315150217905550505050565b8073ffffffffffffffffffffffffffffffffffffffff163373ffffffffffffffffffffffffffffffffffffffff161480610f365750600360003373ffffffffffffffffffffffffffffffffffffffff1673ffffffffffffffffffffffffffffffffffffffff16815260200190815260200160002060009054906101000a900460ff165b610f75576040517f08c379a0000000000000000000000000000000000000000000000000000000008152600401610f6c90611d44565b60405180910390fd5b60008083604051610f869190611b4d565b908152602001604051809103902090506000838342604051602001610fad93929190611b64565b604051602081830303815290604052805190602001209050600182600601600083815260200190815260200160002060006101000a81548160ff0219169083151502179055507f38debb9feda5dc4ac4bc5345c1720812abc36df6b9df7b183d6c0411f8b9bcbb8482604051611024929190611ca4565b60405180910390a150505050565b6000806000836040516110459190611b4d565b90815260200160405180910390209050600073ffffffffffffffffffffffffffffffffffffffff168160000160009054906101000a900473ffffffffffffffffffffffffffffffffffffffff1673ffffffffffffffffffffffffffffffffffffffff1614156110e9576040517f08c379a00000000000000000000000000000000000000000000000000000000081526004016110e090611d04565b60405180910390fd5b6001836040516110f99190611b4d565b9081526020016040518091039020548160020160009054906101000a900467ffffffffffffffff1667ffffffffffffffff166111359190611ea7565b4211611176576040517f08c379a000000000000000000000000000000000000000000000000000000000815260040161116d90611d84565b60405180910390fd5b8060030154600a6111879190611f50565b42826001015460405160200161119e929190611b9d565b6040516020818303038152906040528051906020012060001c6111c19190612197565b8160040181905550428160020160006101000a81548167ffffffffffffffff021916908367ffffffffffffffff1602179055507f3dee1c7a31bb13c79bbcd023d800fb0ceefe9ce463d0c3aceb466db70d1a7dc6838260040154604051611229929190611cd4565b60405180910390a18060040154915050919050565b6000808360405161124f9190611b4d565b9081526020016040518091039020905080600501600083815260200190815260200160002060009054906101000a900460ff16156112c2576040517f08c379a00000000000000000000000000000000000000000000000000000000081526004016112b990611de4565b60405180910390fd5b600181600501600084815260200190815260200160002060006101000a81548160ff02191690831515021790555060006002846040516113029190611b4d565b908152602001604051809103902060008360000160009054906101000a900473ffffffffffffffffffffffffffffffffffffffff1673ffffffffffffffffffffffffffffffffffffffff1673ffffffffffffffffffffffffffffffffffffffff16815260200190815260200160002081905550505050565b600282805160208101820180518482526020830160208501208183528095505050505050602052806000526040600020600091509150505481565b600073ffffffffffffffffffffffffffffffffffffffff166000866040516113dd9190611b4d565b908152602001604051809103902060000160009054906101000a900473ffffffffffffffffffffffffffffffffffffffff1673ffffffffffffffffffffffffffffffffffffffff1614611465576040517f08c379a000000000000000000000000000000000000000000000000000000000815260040161145c90611d24565b60405180910390fd5b600080866040516114769190611b4d565b90815260200160405180910390209050848160000160006101000a81548173ffffffffffffffffffffffffffffffffffffffff021916908373ffffffffffffffffffffffffffffffffffffffff16021790555083816001018190555060008160020160006101000a81548167ffffffffffffffff021916908367ffffffffffffffff160217905550828160030181905550816001876040516115189190611b4d565b9081526020016040518091039020819055507f7f605d0ff47d2a070e456b69ce2a36041788910b64443c7f4c6d307993cade2c868660405161155b929190611c74565b60405180910390a1505050505050565b600061157e61157984611e50565b611e1f565b90508281526020810184848401111561159657600080fd5b6115a18482856120d4565b509392505050565b6000813590506115b881612280565b92915050565b6000813590506115cd81612297565b92915050565b600082601f8301126115e457600080fd5b81356115f484826020860161156b565b91505092915050565b60008135905061160c816122ae565b92915050565b60006020828403121561162457600080fd5b6000611632848285016115a9565b91505092915050565b60006020828403121561164d57600080fd5b600082013567ffffffffffffffff81111561166757600080fd5b611673848285016115d3565b91505092915050565b6000806040838503121561168f57600080fd5b600083013567ffffffffffffffff8111156116a957600080fd5b6116b5858286016115d3565b92505060206116c6858286016115a9565b9150509250929050565b600080600080600060a086880312156116e857600080fd5b600086013567ffffffffffffffff81111561170257600080fd5b61170e888289016115d3565b955050602061171f888289016115a9565b9450506040611730888289016115be565b9350506060611741888289016115fd565b9250506080611752888289016115fd565b9150509295509295909350565b6000806040838503121561177257600080fd5b600083013567ffffffffffffffff81111561178c57600080fd5b611798858286016115d3565b92505060206117a9858286016115be565b9150509250929050565b600080604083850312156117c657600080fd5b600083013567ffffffffffffffff8111156117e057600080fd5b6117ec858286016115d3565b92505060206117fd858286016115fd565b9150509250929050565b6118108161206e565b82525050565b6118276118228261206e565b61215f565b82525050565b61183681612080565b82525050565b6118458161208c565b82525050565b61185c6118578261208c565b612171565b82525050565b600061186d82611e80565b6118778185611e8b565b93506118878185602086016120e3565b61189081612255565b840191505092915050565b60006118a682611e80565b6118b08185611e9c565b93506118c08185602086016120e3565b80840191505092915050565b60006118d9601383611e8b565b91507f55736572206e6f742072656769737465726564000000000000000000000000006000830152602082019050919050565b6000611919601783611e8b565b91507f557365726e616d6520616c7265616479206578697374730000000000000000006000830152602082019050919050565b6000611959602d83611e8b565b91507f4f6e6c792075736572206f722061646d696e2063616e2067656e65726174652060008301527f73657373696f6e20746f6b656e000000000000000000000000000000000000006020830152604082019050919050565b60006119bf601883611e8b565b91507f546f6f206d616e79206661696c656420617474656d70747300000000000000006000830152602082019050919050565b60006119ff601783611e8b565b91507f5761697420666f72204f54502065787069726174696f6e0000000000000000006000830152602082019050919050565b6000611a3f601c83611e8b565b91507f53657373696f6e20746f6b656e20646f6573206e6f74206578697374000000006000830152602082019050919050565b6000611a7f602183611e8b565b91507f4f6e6c792061646d696e2063616e2063616c6c20746869732066756e6374696f60008301527f6e000000000000000000000000000000000000000000000000000000000000006020830152604082019050919050565b6000611ae5601a83611e8b565b91507f5265636f7665727920636f646520616c726561647920757365640000000000006000830152602082019050919050565b611b21816120b6565b82525050565b611b38611b33826120b6565b61218d565b82525050565b611b47816120c0565b82525050565b6000611b59828461189b565b915081905092915050565b6000611b70828661189b565b9150611b7c8285611816565b601482019150611b8c8284611b27565b602082019150819050949350505050565b6000611ba98285611b27565b602082019150611bb9828461184b565b6020820191508190509392505050565b6000602082019050611bde6000830184611807565b92915050565b600060a082019050611bf96000830188611807565b611c06602083018761183c565b611c136040830186611b3e565b611c206060830185611b18565b611c2d6080830184611b18565b9695505050505050565b6000602082019050611c4c600083018461182d565b92915050565b60006020820190508181036000830152611c6c8184611862565b905092915050565b60006040820190508181036000830152611c8e8185611862565b9050611c9d6020830184611807565b9392505050565b60006040820190508181036000830152611cbe8185611862565b9050611ccd602083018461183c565b9392505050565b60006040820190508181036000830152611cee8185611862565b9050611cfd6020830184611b18565b9392505050565b60006020820190508181036000830152611d1d816118cc565b9050919050565b60006020820190508181036000830152611d3d8161190c565b9050919050565b60006020820190508181036000830152611d5d8161194c565b9050919050565b60006020820190508181036000830152611d7d816119b2565b9050919050565b60006020820190508181036000830152611d9d816119f2565b9050919050565b60006020820190508181036000830152611dbd81611a32565b9050919050565b60006020820190508181036000830152611ddd81611a72565b9050919050565b60006020820190508181036000830152611dfd81611ad8565b9050919050565b6000602082019050611e196000830184611b18565b92915050565b6000604051905081810181811067ffffffffffffffff82111715611e4657611e45612226565b5b8060405250919050565b600067ffffffffffffffff821115611e6b57611e6a612226565b5b601f19601f8301169050602081019050919050565b600081519050919050565b600082825260208201905092915050565b600081905092915050565b6000611eb2826120b6565b9150611ebd836120b6565b9250827fffffffffffffffffffffffffffffffffffffffffffffffffffffffffffffffff03821115611ef257611ef16121c8565b5b828201905092915050565b6000808291508390505b6001851115611f4757808604811115611f2357611f226121c8565b5b6001851615611f325780820291505b8081029050611f4085612273565b9450611f07565b94509492505050565b6000611f5b826120b6565b9150611f66836120b6565b9250611f937fffffffffffffffffffffffffffffffffffffffffffffffffffffffffffffffff8484611f9b565b905092915050565b600082611fab5760019050612067565b81611fb95760009050612067565b8160018114611fcf5760028114611fd957612008565b6001915050612067565b60ff841115611feb57611fea6121c8565b5b8360020a915084821115612002576120016121c8565b5b50612067565b5060208310610133831016604e8410600b841016171561203d5782820a905083811115612038576120376121c8565b5b612067565b61204a8484846001611efd565b92509050818404811115612061576120606121c8565b5b81810290505b9392505050565b600061207982612096565b9050919050565b60008115159050919050565b6000819050919050565b600073ffffffffffffffffffffffffffffffffffffffff82169050919050565b6000819050919050565b600067ffffffffffffffff82169050919050565b82818337600083830152505050565b60005b838110156121015780820151818401526020810190506120e6565b83811115612110576000848401525b50505050565b6000612121826120b6565b91507fffffffffffffffffffffffffffffffffffffffffffffffffffffffffffffffff821415612154576121536121c8565b5b600182019050919050565b600061216a8261217b565b9050919050565b6000819050919050565b600061218682612266565b9050919050565b6000819050919050565b60006121a2826120b6565b91506121ad836120b6565b9250826121bd576121bc6121f7565b5b828206905092915050565b7f4e487b7100000000000000000000000000000000000000000000000000000000600052601160045260246000fd5b7f4e487b7100000000000000000000000000000000000000000000000000000000600052601260045260246000fd5b7f4e487b7100000000000000000000000000000000000000000000000000000000600052604160045260246000fd5b6000601f19601f8301169050919050565b60008160601b9050919050565b60008160011c9050919050565b6122898161206e565b811461229457600080fd5b50565b6122a08161208c565b81146122ab57600080fd5b50565b6122b7816120b6565b81146122c257600080fd5b5056fea26469706673582212200bcee522d6c967ac58355dea34d82864f4c3cd540bc88929f44ab44399f1266564736f6c63430008000033",
  "immutableReferences": {},
  "source": "// SPDX-License-Identifier: MIT\npragma solidity ^0.8.0;\n\ncontract TwoFactorAuth {\n    struct User {\n        address publicKey;\n        bytes32 seed;\n        uint64 lastGeneratedAt;\n        uint otpLength;\n        uint otp; // Store OTP for comparison during authentication\n        mapping(bytes32 => bool) recoveryCodeUsed;\n        mapping(bytes32 => bool) sessionTokens;\n        mapping(address => bool) whitelistedIPs;\n    }\n\n    mapping(string => User) public users;\n    mapping(string => uint) public otpExpiry;\n    mapping(string => mapping(address => uint)) public failedAuthAttempts;\n    mapping(address => bool) public admins;\n\n    event UserRegistered(string username, address publicKey);\n    event OTPGenerated(string username, uint otp);\n    event UserAuthenticated(string username);\n    event AuthenticationFailed(string username);\n    event UserRemoved(string username);\n    event RecoveryCodeGenerated(string username, bytes32 recoveryCode);\n    event AdminAdded(address admin);\n    event AdminRemoved(address admin);\n    event SessionTokenGenerated(string username, bytes32 sessionToken);\n    event SessionTokenExpired(string username, bytes32 sessionToken);\n\n    modifier onlyAdmin() {\n        require(admins[msg.sender], \"Only admin can call this function\");\n        _;\n    }\n\n    constructor() {\n        admins[msg.sender] = true;\n    }\n\n    // Function to register a user with their public key, initial OTP seed, and OTP length\n    function registerUser(\n        string memory username,\n        address _publicKey,\n        bytes32 _seed,\n        uint _otpLength,\n        uint _otpExpiry\n    ) external {\n        require(\n            users[username].publicKey == address(0),\n            \"Username already exists\"\n        );\n\n        // Initialize the User struct without the mappings\n        User storage newUser = users[username];\n        newUser.publicKey = _publicKey;\n        newUser.seed = _seed;\n        newUser.lastGeneratedAt = 0;\n        newUser.otpLength = _otpLength;\n\n        otpExpiry[username] = _otpExpiry;\n        emit UserRegistered(username, _publicKey);\n    }\n\n    // Function to generate OTP for a registered user\n    function generateOTP(string memory username) public returns (uint) {\n        User storage user = users[username];\n        require(user.publicKey != address(0), \"User not registered\");\n        require(\n            block.timestamp > user.lastGeneratedAt + otpExpiry[username],\n            \"Wait for OTP expiration\"\n        );\n\n        // Generate OTP based on timestamp, seed, and length\n        user.otp =\n            uint(keccak256(abi.encodePacked(block.timestamp, user.seed))) %\n            (10 ** user.otpLength);\n\n        user.lastGeneratedAt = uint64(block.timestamp);\n\n        emit OTPGenerated(username, user.otp);\n        return user.otp;\n    }\n\n    // Function to authenticate user based on public key and OTP\n    function authenticate(string memory username, uint _otp) external {\n        User storage user = users[username];\n        require(user.publicKey != address(0), \"User not registered\");\n        require(\n            failedAuthAttempts[username][msg.sender] < 3,\n            \"Too many failed attempts\"\n        );\n\n        uint otp = user.otp;\n        if (otp == _otp) {\n            // Reset failed auth attempts\n            delete failedAuthAttempts[username][msg.sender];\n\n            // Add session token\n            bytes32 sessionToken = keccak256(\n                abi.encodePacked(username, msg.sender, block.timestamp)\n            );\n            user.sessionTokens[sessionToken] = true;\n            emit SessionTokenGenerated(username, sessionToken);\n\n            emit UserAuthenticated(username);\n        } else {\n            // Increment failed auth attempts\n            failedAuthAttempts[username][msg.sender]++;\n            emit AuthenticationFailed(username);\n        }\n    }\n\n    // Function to unregister a user\n    function unregisterUser(string memory username) external {\n        require(users[username].publicKey != address(0), \"User not registered\");\n        delete users[username];\n        delete otpExpiry[username];\n        emit UserRemoved(username);\n    }\n\n    // Function to generate recovery code for a user\n    function generateRecoveryCode(\n        string memory username,\n        bytes32 _recoveryCode\n    ) external onlyAdmin {\n        users[username].recoveryCodeUsed[_recoveryCode] = false;\n        emit RecoveryCodeGenerated(username, _recoveryCode);\n    }\n\n    // Function to use recovery code for account recovery\n    function useRecoveryCode(\n        string memory username,\n        bytes32 _recoveryCode\n    ) external {\n        User storage user = users[username];\n        require(\n            !user.recoveryCodeUsed[_recoveryCode],\n            \"Recovery code already used\"\n        );\n        user.recoveryCodeUsed[_recoveryCode] = true;\n        failedAuthAttempts[username][user.publicKey] = 0;\n    }\n\n    // Function to add an admin\n    function addAdmin(address _admin) external onlyAdmin {\n        admins[_admin] = true;\n        emit AdminAdded(_admin);\n    }\n\n    // Function to remove an admin\n    function removeAdmin(address _admin) external onlyAdmin {\n        admins[_admin] = false;\n        emit AdminRemoved(_admin);\n    }\n\n    // Function to generate session token for user\n    function generateSessionToken(\n        string memory username,\n        address _user\n    ) external {\n        require(\n            msg.sender == _user || admins[msg.sender],\n            \"Only user or admin can generate session token\"\n        );\n        User storage user = users[username];\n        bytes32 sessionToken = keccak256(\n            abi.encodePacked(username, _user, block.timestamp)\n        );\n        user.sessionTokens[sessionToken] = true;\n        emit SessionTokenGenerated(username, sessionToken);\n    }\n\n    // Function to invalidate session token\n    function invalidateSessionToken(\n        string memory username,\n        bytes32 sessionToken\n    ) external {\n        User storage user = users[username];\n        require(\n            user.sessionTokens[sessionToken],\n            \"Session token does not exist\"\n        );\n        delete user.sessionTokens[sessionToken];\n        emit SessionTokenExpired(username, sessionToken);\n    }\n\n    // Function to whitelist IP address\n    function whitelistIP(string memory username, address _ip) external {\n        User storage user = users[username];\n        user.whitelistedIPs[_ip] = true;\n    }\n\n    // Function to remove IP address from whitelist\n    function removeWhitelistedIP(string memory username, address _ip) external {\n        User storage user = users[username];\n        user.whitelistedIPs[_ip] = false;\n    }\n\n    // Function to check if IP is whitelisted\n    function isIPWhitelisted(\n        string memory username,\n        address _ip\n    ) external view returns (bool) {\n        User storage user = users[username];\n        return user.whitelistedIPs[_ip];\n    }\n}\n",
  "sourcePath": "/Users/apple/Developer/2fa-blockchain/contracts/2FA.sol",
  "compiler": {
    "name": "solc",
    "version": "0.8.0+commit.c7dfd78e.Emscripten.clang"
  },
  "schemaVersion": "3.4.16",
  "updatedAt": "2024-05-01T15:58:46.378Z",
  "networkType": "ethereum",
  "devdoc": {
    "kind": "dev",
    "methods": {},
    "version": 1
  },
  "userdoc": {
    "kind": "user",
    "methods": {},
    "version": 1
  }
}